{
  "contractName": "Storage",
  "abi": [
    {
      "constant": true,
      "inputs": [],
      "name": "governanceWalletAddress",
      "outputs": [
        {
          "name": "",
          "type": "address"
        }
      ],
      "payable": false,
      "stateMutability": "view",
      "type": "function",
      "signature": "0xa8b799e9"
    },
    {
      "inputs": [
        {
          "name": "_governanceWalletAddress",
          "type": "address"
        },
        {
          "name": "_weth",
          "type": "address"
        },
        {
          "name": "_dai",
          "type": "address"
        }
      ],
      "payable": false,
      "stateMutability": "nonpayable",
      "type": "constructor",
      "signature": "constructor"
    },
    {
      "constant": true,
      "inputs": [],
      "name": "getGovernanceWallet",
      "outputs": [
        {
          "name": "",
          "type": "address"
        }
      ],
      "payable": false,
      "stateMutability": "view",
      "type": "function",
      "signature": "0xdb404236"
    },
    {
      "constant": true,
      "inputs": [
        {
          "name": "target",
          "type": "address"
        }
      ],
      "name": "getIsOracle",
      "outputs": [
        {
          "name": "",
          "type": "bool"
        }
      ],
      "payable": false,
      "stateMutability": "view",
      "type": "function",
      "signature": "0xc8f544cc"
    },
    {
      "constant": true,
      "inputs": [
        {
          "name": "contractName",
          "type": "bytes32"
        }
      ],
      "name": "getContractAddress",
      "outputs": [
        {
          "name": "",
          "type": "address"
        }
      ],
      "payable": false,
      "stateMutability": "view",
      "type": "function",
      "signature": "0x0d2020dd"
    },
    {
      "constant": true,
      "inputs": [
        {
          "name": "contractName",
          "type": "bytes32"
        }
      ],
      "name": "getVerifier",
      "outputs": [
        {
          "name": "",
          "type": "address"
        }
      ],
      "payable": false,
      "stateMutability": "view",
      "type": "function",
      "signature": "0xeeb7b248"
    },
    {
      "constant": true,
      "inputs": [
        {
          "name": "tokenId",
          "type": "bytes32"
        }
      ],
      "name": "getTokenKey",
      "outputs": [
        {
          "name": "",
          "type": "bytes32"
        }
      ],
      "payable": false,
      "stateMutability": "view",
      "type": "function",
      "signature": "0x43aee400"
    },
    {
      "constant": true,
      "inputs": [
        {
          "name": "ray",
          "type": "bytes32"
        }
      ],
      "name": "getOpportunities",
      "outputs": [
        {
          "name": "",
          "type": "bytes32[]"
        }
      ],
      "payable": false,
      "stateMutability": "view",
      "type": "function",
      "signature": "0x69a4e7ac"
    },
    {
      "constant": true,
      "inputs": [
        {
          "name": "ray",
          "type": "bytes32"
        }
      ],
      "name": "getPrincipalAddress",
      "outputs": [
        {
          "name": "",
          "type": "address"
        }
      ],
      "payable": false,
      "stateMutability": "view",
      "type": "function",
      "signature": "0x3f1793c3"
    },
    {
      "constant": true,
      "inputs": [
        {
          "name": "principalAddress",
          "type": "address"
        }
      ],
      "name": "getIsERC20",
      "outputs": [
        {
          "name": "",
          "type": "bool"
        }
      ],
      "payable": false,
      "stateMutability": "view",
      "type": "function",
      "signature": "0x53024bae"
    },
    {
      "constant": true,
      "inputs": [
        {
          "name": "principalAddress",
          "type": "address"
        }
      ],
      "name": "getMinAmount",
      "outputs": [
        {
          "name": "",
          "type": "uint256"
        }
      ],
      "payable": false,
      "stateMutability": "view",
      "type": "function",
      "signature": "0x5eb62178"
    },
    {
      "constant": true,
      "inputs": [
        {
          "name": "principalAddress",
          "type": "address"
        }
      ],
      "name": "getRaised",
      "outputs": [
        {
          "name": "",
          "type": "uint256"
        }
      ],
      "payable": false,
      "stateMutability": "view",
      "type": "function",
      "signature": "0x234817e7"
    },
    {
      "constant": true,
      "inputs": [
        {
          "name": "principalAddress",
          "type": "address"
        }
      ],
      "name": "getBenchmarkRate",
      "outputs": [
        {
          "name": "",
          "type": "uint256"
        }
      ],
      "payable": false,
      "stateMutability": "view",
      "type": "function",
      "signature": "0xa79d3a16"
    },
    {
      "constant": true,
      "inputs": [
        {
          "name": "principalAddress",
          "type": "address"
        }
      ],
      "name": "getCumulativeRate",
      "outputs": [
        {
          "name": "",
          "type": "uint256"
        }
      ],
      "payable": false,
      "stateMutability": "view",
      "type": "function",
      "signature": "0x549bc14d"
    },
    {
      "constant": true,
      "inputs": [
        {
          "name": "principalAddress",
          "type": "address"
        }
      ],
      "name": "getLastUpdatedRate",
      "outputs": [
        {
          "name": "",
          "type": "uint256"
        }
      ],
      "payable": false,
      "stateMutability": "view",
      "type": "function",
      "signature": "0xf06cbb5d"
    },
    {
      "constant": true,
      "inputs": [
        {
          "name": "principalAddress",
          "type": "address"
        }
      ],
      "name": "getACPContribution",
      "outputs": [
        {
          "name": "",
          "type": "uint256"
        }
      ],
      "payable": false,
      "stateMutability": "view",
      "type": "function",
      "signature": "0xfd134706"
    },
    {
      "constant": true,
      "inputs": [
        {
          "name": "ray",
          "type": "bytes32"
        },
        {
          "name": "opportunityKey",
          "type": "bytes32"
        }
      ],
      "name": "isValidOpportunity",
      "outputs": [
        {
          "name": "",
          "type": "bool"
        }
      ],
      "payable": false,
      "stateMutability": "view",
      "type": "function",
      "signature": "0x241adc55"
    },
    {
      "constant": true,
      "inputs": [
        {
          "name": "ray",
          "type": "bytes32"
        },
        {
          "name": "tokenId",
          "type": "bytes32"
        }
      ],
      "name": "getTokenShares",
      "outputs": [
        {
          "name": "",
          "type": "uint256"
        }
      ],
      "payable": false,
      "stateMutability": "view",
      "type": "function",
      "signature": "0xd400d43a"
    },
    {
      "constant": true,
      "inputs": [
        {
          "name": "ray",
          "type": "bytes32"
        },
        {
          "name": "tokenId",
          "type": "bytes32"
        }
      ],
      "name": "getTokenCapital",
      "outputs": [
        {
          "name": "",
          "type": "uint256"
        }
      ],
      "payable": false,
      "stateMutability": "view",
      "type": "function",
      "signature": "0x2d577a50"
    },
    {
      "constant": true,
      "inputs": [
        {
          "name": "ray",
          "type": "bytes32"
        },
        {
          "name": "tokenId",
          "type": "bytes32"
        }
      ],
      "name": "getTokenAllowance",
      "outputs": [
        {
          "name": "",
          "type": "uint256"
        }
      ],
      "payable": false,
      "stateMutability": "view",
      "type": "function",
      "signature": "0xc02db903"
    },
    {
      "constant": true,
      "inputs": [
        {
          "name": "ray",
          "type": "bytes32"
        },
        {
          "name": "tokenId",
          "type": "bytes32"
        }
      ],
      "name": "getEntryRate",
      "outputs": [
        {
          "name": "",
          "type": "uint256"
        }
      ],
      "payable": false,
      "stateMutability": "view",
      "type": "function",
      "signature": "0x514af3fa"
    },
    {
      "constant": true,
      "inputs": [
        {
          "name": "ray",
          "type": "bytes32"
        },
        {
          "name": "opportunity",
          "type": "bytes32"
        }
      ],
      "name": "getOpportunityToken",
      "outputs": [
        {
          "name": "",
          "type": "bytes32"
        }
      ],
      "payable": false,
      "stateMutability": "view",
      "type": "function",
      "signature": "0xc80a2929"
    },
    {
      "constant": true,
      "inputs": [
        {
          "name": "opportunityKey",
          "type": "bytes32"
        }
      ],
      "name": "getPrincipal",
      "outputs": [
        {
          "name": "",
          "type": "uint256"
        }
      ],
      "payable": false,
      "stateMutability": "view",
      "type": "function",
      "signature": "0x5ecc1317"
    },
    {
      "constant": true,
      "inputs": [
        {
          "name": "ray",
          "type": "bytes32"
        }
      ],
      "name": "getPausedMode",
      "outputs": [
        {
          "name": "",
          "type": "bool"
        }
      ],
      "payable": false,
      "stateMutability": "view",
      "type": "function",
      "signature": "0x617ddc7f"
    },
    {
      "constant": true,
      "inputs": [
        {
          "name": "ray",
          "type": "bytes32"
        }
      ],
      "name": "getRealizedYield",
      "outputs": [
        {
          "name": "",
          "type": "uint256"
        }
      ],
      "payable": false,
      "stateMutability": "view",
      "type": "function",
      "signature": "0x39cbe718"
    },
    {
      "constant": true,
      "inputs": [
        {
          "name": "ray",
          "type": "bytes32"
        }
      ],
      "name": "getWithdrawnYield",
      "outputs": [
        {
          "name": "",
          "type": "uint256"
        }
      ],
      "payable": false,
      "stateMutability": "view",
      "type": "function",
      "signature": "0x87d985b0"
    },
    {
      "constant": true,
      "inputs": [
        {
          "name": "ray",
          "type": "bytes32"
        }
      ],
      "name": "getAvailableCapital",
      "outputs": [
        {
          "name": "",
          "type": "uint256"
        }
      ],
      "payable": false,
      "stateMutability": "view",
      "type": "function",
      "signature": "0x270ce10c"
    },
    {
      "constant": true,
      "inputs": [
        {
          "name": "ray",
          "type": "bytes32"
        }
      ],
      "name": "getShareSupply",
      "outputs": [
        {
          "name": "",
          "type": "uint256"
        }
      ],
      "payable": false,
      "stateMutability": "view",
      "type": "function",
      "signature": "0x1843b73c"
    },
    {
      "constant": true,
      "inputs": [
        {
          "name": "ray",
          "type": "bytes32"
        },
        {
          "name": "key",
          "type": "bytes32"
        }
      ],
      "name": "getBoolean",
      "outputs": [
        {
          "name": "",
          "type": "bool"
        }
      ],
      "payable": false,
      "stateMutability": "view",
      "type": "function",
      "signature": "0x90190df3"
    },
    {
      "constant": true,
      "inputs": [
        {
          "name": "ray",
          "type": "bytes32"
        },
        {
          "name": "key",
          "type": "bytes32"
        }
      ],
      "name": "getInt",
      "outputs": [
        {
          "name": "",
          "type": "int256"
        }
      ],
      "payable": false,
      "stateMutability": "view",
      "type": "function",
      "signature": "0xa6fbf3d2"
    },
    {
      "constant": true,
      "inputs": [
        {
          "name": "ray",
          "type": "bytes32"
        },
        {
          "name": "key",
          "type": "bytes32"
        }
      ],
      "name": "getUint",
      "outputs": [
        {
          "name": "",
          "type": "uint256"
        }
      ],
      "payable": false,
      "stateMutability": "view",
      "type": "function",
      "signature": "0x7a6ad926"
    },
    {
      "constant": true,
      "inputs": [
        {
          "name": "ray",
          "type": "bytes32"
        },
        {
          "name": "key",
          "type": "bytes32"
        }
      ],
      "name": "getAddress",
      "outputs": [
        {
          "name": "",
          "type": "address"
        }
      ],
      "payable": false,
      "stateMutability": "view",
      "type": "function",
      "signature": "0xd3a39686"
    },
    {
      "constant": true,
      "inputs": [
        {
          "name": "ray",
          "type": "bytes32"
        },
        {
          "name": "key",
          "type": "bytes32"
        }
      ],
      "name": "getString",
      "outputs": [
        {
          "name": "",
          "type": "string"
        }
      ],
      "payable": false,
      "stateMutability": "view",
      "type": "function",
      "signature": "0x31477b9b"
    },
    {
      "constant": true,
      "inputs": [
        {
          "name": "ray",
          "type": "bytes32"
        },
        {
          "name": "key",
          "type": "bytes32"
        }
      ],
      "name": "getBytes",
      "outputs": [
        {
          "name": "",
          "type": "bytes"
        }
      ],
      "payable": false,
      "stateMutability": "view",
      "type": "function",
      "signature": "0xc7750f29"
    },
    {
      "constant": false,
      "inputs": [
        {
          "name": "newGovernanceWallet",
          "type": "address"
        }
      ],
      "name": "setGovernanceWallet",
      "outputs": [],
      "payable": false,
      "stateMutability": "nonpayable",
      "type": "function",
      "signature": "0x607c219f"
    },
    {
      "constant": false,
      "inputs": [
        {
          "name": "oracle",
          "type": "address"
        },
        {
          "name": "action",
          "type": "bool"
        }
      ],
      "name": "setOracle",
      "outputs": [],
      "payable": false,
      "stateMutability": "nonpayable",
      "type": "function",
      "signature": "0x65360843"
    },
    {
      "constant": false,
      "inputs": [
        {
          "name": "theStorageWrapper",
          "type": "address"
        },
        {
          "name": "action",
          "type": "bool"
        }
      ],
      "name": "setStorageWrapperContract",
      "outputs": [],
      "payable": false,
      "stateMutability": "nonpayable",
      "type": "function",
      "signature": "0x8cdaab8f"
    },
    {
      "constant": false,
      "inputs": [
        {
          "name": "ray",
          "type": "bytes32"
        },
        {
          "name": "contractAddress",
          "type": "address"
        }
      ],
      "name": "setVerifier",
      "outputs": [],
      "payable": false,
      "stateMutability": "nonpayable",
      "type": "function",
      "signature": "0xa692b9ef"
    },
    {
      "constant": false,
      "inputs": [
        {
          "name": "contractName",
          "type": "bytes32"
        },
        {
          "name": "contractAddress",
          "type": "address"
        }
      ],
      "name": "setContractAddress",
      "outputs": [],
      "payable": false,
      "stateMutability": "nonpayable",
      "type": "function",
      "signature": "0xe001f841"
    },
    {
      "constant": false,
      "inputs": [
        {
          "name": "tokenId",
          "type": "bytes32"
        },
        {
          "name": "ray",
          "type": "bytes32"
        }
      ],
      "name": "setTokenKey",
      "outputs": [],
      "payable": false,
      "stateMutability": "nonpayable",
      "type": "function",
      "signature": "0xf1380bc3"
    },
    {
      "constant": false,
      "inputs": [
        {
          "name": "principalAddress",
          "type": "address"
        },
        {
          "name": "_isERC20",
          "type": "bool"
        }
      ],
      "name": "setIsERC20",
      "outputs": [],
      "payable": false,
      "stateMutability": "nonpayable",
      "type": "function",
      "signature": "0x6bbe502f"
    },
    {
      "constant": false,
      "inputs": [
        {
          "name": "principalAddress",
          "type": "address"
        },
        {
          "name": "_minAmount",
          "type": "uint256"
        }
      ],
      "name": "setMinAmount",
      "outputs": [],
      "payable": false,
      "stateMutability": "nonpayable",
      "type": "function",
      "signature": "0xd5708d5a"
    },
    {
      "constant": false,
      "inputs": [
        {
          "name": "principalAddress",
          "type": "address"
        },
        {
          "name": "_raised",
          "type": "uint256"
        }
      ],
      "name": "setRaised",
      "outputs": [],
      "payable": false,
      "stateMutability": "nonpayable",
      "type": "function",
      "signature": "0xd37b4cf4"
    },
    {
      "constant": false,
      "inputs": [
        {
          "name": "principalAddress",
          "type": "address"
        },
        {
          "name": "newBenchmarkRate",
          "type": "uint256"
        }
      ],
      "name": "setBenchmarkRate",
      "outputs": [],
      "payable": false,
      "stateMutability": "nonpayable",
      "type": "function",
      "signature": "0x67b98d9e"
    },
    {
      "constant": false,
      "inputs": [
        {
          "name": "principalAddress",
          "type": "address"
        },
        {
          "name": "newCumulativeRate",
          "type": "uint256"
        }
      ],
      "name": "setCumulativeRate",
      "outputs": [],
      "payable": false,
      "stateMutability": "nonpayable",
      "type": "function",
      "signature": "0xa7cc87d7"
    },
    {
      "constant": false,
      "inputs": [
        {
          "name": "principalAddress",
          "type": "address"
        },
        {
          "name": "newLastUpdatedRate",
          "type": "uint256"
        }
      ],
      "name": "setLastUpdatedRate",
      "outputs": [],
      "payable": false,
      "stateMutability": "nonpayable",
      "type": "function",
      "signature": "0x88a538b3"
    },
    {
      "constant": false,
      "inputs": [
        {
          "name": "principalAddress",
          "type": "address"
        },
        {
          "name": "newACPContribution",
          "type": "uint256"
        }
      ],
      "name": "setACPContribution",
      "outputs": [],
      "payable": false,
      "stateMutability": "nonpayable",
      "type": "function",
      "signature": "0xfa6d3d2e"
    },
    {
      "constant": false,
      "inputs": [
        {
          "name": "ray",
          "type": "bytes32"
        },
        {
          "name": "tokenId",
          "type": "bytes32"
        }
      ],
      "name": "deleteTokenValues",
      "outputs": [],
      "payable": false,
      "stateMutability": "nonpayable",
      "type": "function",
      "signature": "0xe08f6450"
    },
    {
      "constant": false,
      "inputs": [
        {
          "name": "ray",
          "type": "bytes32"
        },
        {
          "name": "opportunityKey",
          "type": "bytes32"
        },
        {
          "name": "_principalAddress",
          "type": "address"
        }
      ],
      "name": "addOpportunity",
      "outputs": [],
      "payable": false,
      "stateMutability": "nonpayable",
      "type": "function",
      "signature": "0x407930dd"
    },
    {
      "constant": false,
      "inputs": [
        {
          "name": "ray",
          "type": "bytes32"
        },
        {
          "name": "_principalAddress",
          "type": "address"
        }
      ],
      "name": "setPrincipalAddress",
      "outputs": [],
      "payable": false,
      "stateMutability": "nonpayable",
      "type": "function",
      "signature": "0x8116b842"
    },
    {
      "constant": false,
      "inputs": [
        {
          "name": "ray",
          "type": "bytes32"
        },
        {
          "name": "opportunityKey",
          "type": "bytes32"
        }
      ],
      "name": "setValidOpportunity",
      "outputs": [],
      "payable": false,
      "stateMutability": "nonpayable",
      "type": "function",
      "signature": "0xe3b28265"
    },
    {
      "constant": false,
      "inputs": [
        {
          "name": "ray",
          "type": "bytes32"
        },
        {
          "name": "tokenId",
          "type": "bytes32"
        },
        {
          "name": "tokenShares",
          "type": "uint256"
        }
      ],
      "name": "setTokenShares",
      "outputs": [],
      "payable": false,
      "stateMutability": "nonpayable",
      "type": "function",
      "signature": "0xbde449be"
    },
    {
      "constant": false,
      "inputs": [
        {
          "name": "ray",
          "type": "bytes32"
        },
        {
          "name": "tokenId",
          "type": "bytes32"
        },
        {
          "name": "tokenCapital",
          "type": "uint256"
        }
      ],
      "name": "setTokenCapital",
      "outputs": [],
      "payable": false,
      "stateMutability": "nonpayable",
      "type": "function",
      "signature": "0xd2767108"
    },
    {
      "constant": false,
      "inputs": [
        {
          "name": "ray",
          "type": "bytes32"
        },
        {
          "name": "tokenId",
          "type": "bytes32"
        },
        {
          "name": "tokenAllowance",
          "type": "uint256"
        }
      ],
      "name": "setTokenAllowance",
      "outputs": [],
      "payable": false,
      "stateMutability": "nonpayable",
      "type": "function",
      "signature": "0x9a1b9ac0"
    },
    {
      "constant": false,
      "inputs": [
        {
          "name": "ray",
          "type": "bytes32"
        },
        {
          "name": "tokenId",
          "type": "bytes32"
        },
        {
          "name": "entryRate",
          "type": "uint256"
        }
      ],
      "name": "setEntryRate",
      "outputs": [],
      "payable": false,
      "stateMutability": "nonpayable",
      "type": "function",
      "signature": "0x496b5773"
    },
    {
      "constant": false,
      "inputs": [
        {
          "name": "ray",
          "type": "bytes32"
        },
        {
          "name": "opportunity",
          "type": "bytes32"
        },
        {
          "name": "tokenId",
          "type": "bytes32"
        }
      ],
      "name": "setOpportunityToken",
      "outputs": [],
      "payable": false,
      "stateMutability": "nonpayable",
      "type": "function",
      "signature": "0xc424cefb"
    },
    {
      "constant": false,
      "inputs": [
        {
          "name": "opportunityKey",
          "type": "bytes32"
        },
        {
          "name": "principalAmount",
          "type": "uint256"
        }
      ],
      "name": "setPrincipal",
      "outputs": [],
      "payable": false,
      "stateMutability": "nonpayable",
      "type": "function",
      "signature": "0x9ff46d1c"
    },
    {
      "constant": false,
      "inputs": [
        {
          "name": "ray",
          "type": "bytes32"
        }
      ],
      "name": "setPausedOn",
      "outputs": [],
      "payable": false,
      "stateMutability": "nonpayable",
      "type": "function",
      "signature": "0xf74936a4"
    },
    {
      "constant": false,
      "inputs": [
        {
          "name": "ray",
          "type": "bytes32"
        }
      ],
      "name": "setPausedOff",
      "outputs": [],
      "payable": false,
      "stateMutability": "nonpayable",
      "type": "function",
      "signature": "0x3624d30c"
    },
    {
      "constant": false,
      "inputs": [
        {
          "name": "ray",
          "type": "bytes32"
        },
        {
          "name": "newRealizedYield",
          "type": "uint256"
        }
      ],
      "name": "setRealizedYield",
      "outputs": [],
      "payable": false,
      "stateMutability": "nonpayable",
      "type": "function",
      "signature": "0x2391e9f5"
    },
    {
      "constant": false,
      "inputs": [
        {
          "name": "ray",
          "type": "bytes32"
        },
        {
          "name": "newWithdrawnYield",
          "type": "uint256"
        }
      ],
      "name": "setWithdrawnYield",
      "outputs": [],
      "payable": false,
      "stateMutability": "nonpayable",
      "type": "function",
      "signature": "0xc40a302e"
    },
    {
      "constant": false,
      "inputs": [
        {
          "name": "ray",
          "type": "bytes32"
        },
        {
          "name": "newAvailableCapital",
          "type": "uint256"
        }
      ],
      "name": "setAvailableCapital",
      "outputs": [],
      "payable": false,
      "stateMutability": "nonpayable",
      "type": "function",
      "signature": "0xbce31655"
    },
    {
      "constant": false,
      "inputs": [
        {
          "name": "ray",
          "type": "bytes32"
        },
        {
          "name": "newShareSupply",
          "type": "uint256"
        }
      ],
      "name": "setShareSupply",
      "outputs": [],
      "payable": false,
      "stateMutability": "nonpayable",
      "type": "function",
      "signature": "0x60a8c77b"
    },
    {
      "constant": false,
      "inputs": [
        {
          "name": "ray",
          "type": "bytes32"
        },
        {
          "name": "key",
          "type": "bytes32"
        },
        {
          "name": "value",
          "type": "bool"
        }
      ],
      "name": "setBoolean",
      "outputs": [],
      "payable": false,
      "stateMutability": "nonpayable",
      "type": "function",
      "signature": "0xda1b9163"
    },
    {
      "constant": false,
      "inputs": [
        {
          "name": "ray",
          "type": "bytes32"
        },
        {
          "name": "key",
          "type": "bytes32"
        },
        {
          "name": "value",
          "type": "int256"
        }
      ],
      "name": "setInt",
      "outputs": [],
      "payable": false,
      "stateMutability": "nonpayable",
      "type": "function",
      "signature": "0x061c8800"
    },
    {
      "constant": false,
      "inputs": [
        {
          "name": "ray",
          "type": "bytes32"
        },
        {
          "name": "key",
          "type": "bytes32"
        },
        {
          "name": "value",
          "type": "uint256"
        }
      ],
      "name": "setUint",
      "outputs": [],
      "payable": false,
      "stateMutability": "nonpayable",
      "type": "function",
      "signature": "0x1d60084b"
    },
    {
      "constant": false,
      "inputs": [
        {
          "name": "ray",
          "type": "bytes32"
        },
        {
          "name": "key",
          "type": "bytes32"
        },
        {
          "name": "value",
          "type": "address"
        }
      ],
      "name": "setAddress",
      "outputs": [],
      "payable": false,
      "stateMutability": "nonpayable",
      "type": "function",
      "signature": "0x79a7cfee"
    },
    {
      "constant": false,
      "inputs": [
        {
          "name": "ray",
          "type": "bytes32"
        },
        {
          "name": "key",
          "type": "bytes32"
        },
        {
          "name": "value",
          "type": "string"
        }
      ],
      "name": "setString",
      "outputs": [],
      "payable": false,
      "stateMutability": "nonpayable",
      "type": "function",
      "signature": "0x235913f5"
    },
    {
      "constant": false,
      "inputs": [
        {
          "name": "ray",
          "type": "bytes32"
        },
        {
          "name": "key",
          "type": "bytes32"
        },
        {
          "name": "value",
          "type": "bytes"
        }
      ],
      "name": "setBytes",
      "outputs": [],
      "payable": false,
      "stateMutability": "nonpayable",
      "type": "function",
      "signature": "0xb4bfee4b"
    }
  ],
  "bytecode": "0x608060405234801561001057600080fd5b50604051606080612ab283398101604081815282516020808501519483015160008054600160a060020a03948516600160a060020a03199182161782557f57455448546f6b656e436f6e747261637400000000000000000000000000000087528551968790036011018720825260048085528683208054998716998316999099179098557f444149546f6b656e436f6e747261637400000000000000000000000000000000875285519687900360100187208252878452858220805495909316948116949094179091557f41646d696e436f6e7472616374000000000000000000000000000000000000008552835194859003600d01909420845293845281832080549091163390811790915582526001928390529020805460ff19169091179055612971806101416000396000f3006080604052600436106103215763ffffffff7c0100000000000000000000000000000000000000000000000000000000600035041663061c880081146103265780630d2020dd146103465780631843b73c1461037a5780631d60084b146103a4578063234817e7146103c2578063235913f5146103e35780632391e9f51461040b578063241adc5514610426578063270ce10c146104555780632d577a501461046d57806331477b9b146104885780633624d30c1461051857806339cbe718146105305780633f1793c314610548578063407930dd1461056057806343aee40014610587578063496b57731461059f578063514af3fa146105bd57806353024bae146105d8578063549bc14d146105f95780635eb621781461061a5780635ecc13171461063b578063607c219f1461065357806360a8c77b14610674578063617ddc7f1461068f57806365360843146106a757806367b98d9e146106cd57806369a4e7ac146106f15780636bbe502f1461075957806379a7cfee1461077f5780637a6ad926146107a65780638116b842146107c157806387d985b0146107e557806388a538b3146107fd5780638cdaab8f1461082157806390190df3146108475780639a1b9ac0146108625780639ff46d1c14610880578063a692b9ef1461089b578063a6fbf3d2146108bf578063a79d3a16146108da578063a7cc87d7146108fb578063a8b799e91461091f578063b4bfee4b14610934578063bce316551461095c578063bde449be14610977578063c02db90314610995578063c40a302e146109b0578063c424cefb146109cb578063c7750f29146109e9578063c80a292914610a04578063c8f544cc14610a1f578063d276710814610a40578063d37b4cf414610a5e578063d3a3968614610a82578063d400d43a14610a9d578063d5708d5a14610ab8578063da1b916314610adc578063db40423614610afc578063e001f84114610b11578063e08f645014610b35578063e3b2826514610b50578063eeb7b24814610b6b578063f06cbb5d14610b83578063f1380bc314610ba4578063f74936a414610bbf578063fa6d3d2e14610bd7578063fd13470614610bfb575b600080fd5b34801561033257600080fd5b50610344600435602435604435610c1c565b005b34801561035257600080fd5b5061035e600435610cbf565b60408051600160a060020a039092168252519081900360200190f35b34801561038657600080fd5b50610392600435610cda565b60408051918252519081900360200190f35b3480156103b057600080fd5b50610344600435602435604435610cef565b3480156103ce57600080fd5b50610392600160a060020a0360043516610d92565b3480156103ef57600080fd5b5061034460048035906024803591604435918201910135610db0565b34801561041757600080fd5b50610344600435602435610e61565b34801561043257600080fd5b50610441600435602435610ef9565b604080519115158252519081900360200190f35b34801561046157600080fd5b50610392600435610f1d565b34801561047957600080fd5b50610392600435602435610f32565b34801561049457600080fd5b506104a3600435602435610f5a565b6040805160208082528351818301528351919283929083019185019080838360005b838110156104dd5781810151838201526020016104c5565b50505050905090810190601f16801561050a5780820380516001836020036101000a031916815260200191505b509250505060405180910390f35b34801561052457600080fd5b50610344600435611007565b34801561053c57600080fd5b506103926004356110a5565b34801561055457600080fd5b5061035e6004356110ba565b34801561056c57600080fd5b50610344600435602435600160a060020a03604435166110dd565b34801561059357600080fd5b506103926004356111c7565b3480156105ab57600080fd5b506103446004356024356044356111d9565b3480156105c957600080fd5b50610392600435602435611284565b3480156105e457600080fd5b50610441600160a060020a03600435166112a7565b34801561060557600080fd5b50610392600160a060020a03600435166112c8565b34801561062657600080fd5b50610392600160a060020a03600435166112e6565b34801561064757600080fd5b50610392600435611304565b34801561065f57600080fd5b50610344600160a060020a0360043516611319565b34801561068057600080fd5b506103446004356024356113cb565b34801561069b57600080fd5b50610441600435611463565b3480156106b357600080fd5b50610344600160a060020a0360043516602435151561147b565b3480156106d957600080fd5b50610344600160a060020a0360043516602435611529565b3480156106fd57600080fd5b506107096004356115c8565b60408051602080825283518183015283519192839290830191858101910280838360005b8381101561074557818101518382015260200161072d565b505050509050019250505060405180910390f35b34801561076557600080fd5b50610344600160a060020a0360043516602435151561162e565b34801561078b57600080fd5b50610344600435602435600160a060020a03604435166116df565b3480156107b257600080fd5b506103926004356024356117ab565b3480156107cd57600080fd5b50610344600435600160a060020a03602435166117cc565b3480156107f157600080fd5b50610392600435611894565b34801561080957600080fd5b50610344600160a060020a03600435166024356118a6565b34801561082d57600080fd5b50610344600160a060020a03600435166024351515611948565b34801561085357600080fd5b506104416004356024356119f6565b34801561086e57600080fd5b50610344600435602435604435611a19565b34801561088c57600080fd5b50610344600435602435611ac1565b3480156108a757600080fd5b50610344600435600160a060020a0360243516611b59565b3480156108cb57600080fd5b50610392600435602435611c17565b3480156108e657600080fd5b50610392600160a060020a0360043516611c38565b34801561090757600080fd5b50610344600160a060020a0360043516602435611c53565b34801561092b57600080fd5b5061035e611cf5565b34801561094057600080fd5b5061034460048035906024803591604435918201910135611d04565b34801561096857600080fd5b50610344600435602435611dae565b34801561098357600080fd5b50610344600435602435604435611e46565b3480156109a157600080fd5b50610392600435602435611eec565b3480156109bc57600080fd5b50610344600435602435611f0f565b3480156109d757600080fd5b50610344600435602435604435611fa4565b3480156109f557600080fd5b506104a3600435602435612043565b348015610a1057600080fd5b506103926004356024356120b8565b348015610a2b57600080fd5b50610441600160a060020a03600435166120d5565b348015610a4c57600080fd5b506103446004356024356044356120f3565b348015610a6a57600080fd5b50610344600160a060020a036004351660243561219b565b348015610a8e57600080fd5b5061035e60043560243561223d565b348015610aa957600080fd5b50610392600435602435612267565b348015610ac457600080fd5b50610344600160a060020a0360043516602435612289565b348015610ae857600080fd5b50610344600435602435604435151561232b565b348015610b0857600080fd5b5061035e6123db565b348015610b1d57600080fd5b50610344600435600160a060020a03602435166123eb565b348015610b4157600080fd5b506103446004356024356124a9565b348015610b5c57600080fd5b50610344600435602435612555565b348015610b7757600080fd5b5061035e600435612602565b348015610b8f57600080fd5b50610392600160a060020a036004351661261d565b348015610bb057600080fd5b5061034460043560243561263b565b348015610bcb57600080fd5b506103446004356126d0565b348015610be357600080fd5b50610344600160a060020a0360043516602435612771565b348015610c0757600080fd5b50610392600160a060020a0360043516612813565b3360009081526001602081905260409091205460ff16151514610c9f576040805160e560020a62461bcd0281526020600482015260496024820152600080516020612906833981519152604482015260008051602061292683398151915260648201526000805160206128e6833981519152608482015290519081900360a40190fd5b600092835260066020908152604080852093855260079093019052912055565b600090815260046020526040902054600160a060020a031690565b60009081526006602052604090206002015490565b3360009081526001602081905260409091205460ff16151514610d72576040805160e560020a62461bcd0281526020600482015260496024820152600080516020612906833981519152604482015260008051602061292683398151915260648201526000805160206128e6833981519152608482015290519081900360a40190fd5b600092835260066020908152604080852093855260089093019052912055565b600160a060020a031660009081526008602052604090206005015490565b3360009081526001602081905260409091205460ff16151514610e33576040805160e560020a62461bcd0281526020600482015260496024820152600080516020612906833981519152604482015260008051602061292683398151915260648201526000805160206128e6833981519152608482015290519081900360a40190fd5b60008481526006602090815260408083208684526009019091529020610e5a908383612831565b5050505050565b3360009081526001602081905260409091205460ff16151514610ee4576040805160e560020a62461bcd0281526020600482015260496024820152600080516020612906833981519152604482015260008051602061292683398151915260648201526000805160206128e6833981519152608482015290519081900360a40190fd5b60009182526006602052604090912060010155565b60009182526007602090815260408084209284526002909201905290205460ff1690565b60009081526007602052604090206003015490565b6000828152600660209081526040808320848452600501909152812060015b01549392505050565b600082815260066020908152604080832084845260090182529182902080548351601f6002610100600185161502600019019093169290920491820184900484028101840190945280845260609392830182828015610ffa5780601f10610fcf57610100808354040283529160200191610ffa565b820191906000526020600020905b815481529060010190602001808311610fdd57829003601f168201915b5050505050905092915050565b3360009081526001602081905260409091205460ff1615151461108a576040805160e560020a62461bcd0281526020600482015260496024820152600080516020612906833981519152604482015260008051602061292683398151915260648201526000805160206128e6833981519152608482015290519081900360a40190fd5b6000908152600660205260409020600401805460ff19169055565b60009081526006602052604090206001015490565b6000908152600660205260409020600401546101009004600160a060020a031690565b3360009081526001602081905260409091205460ff16151514611160576040805160e560020a62461bcd0281526020600482015260496024820152600080516020612906833981519152604482015260008051602061292683398151915260648201526000805160206128e6833981519152608482015290519081900360a40190fd5b600083815260076020908152604080832060019081018054918201815584528284200194909455938152600690935291206004018054600160a060020a039092166101000274ffffffffffffffffffffffffffffffffffffffff0019909216919091179055565b60009081526005602052604090205490565b3360009081526001602081905260409091205460ff1615151461125c576040805160e560020a62461bcd0281526020600482015260496024820152600080516020612906833981519152604482015260008051602061292683398151915260648201526000805160206128e6833981519152608482015290519081900360a40190fd5b60008381526006602090815260408083208584526005019091529020819060035b0155505050565b600082815260066020908152604080832084845260050190915281206003610f51565b600160a060020a031660009081526008602052604090206006015460ff1690565b600160a060020a031660009081526008602052604090206001015490565b600160a060020a031660009081526008602052604090206004015490565b60009081526006602052604090206003015490565b3360009081526001602081905260409091205460ff1615151461139c576040805160e560020a62461bcd0281526020600482015260496024820152600080516020612906833981519152604482015260008051602061292683398151915260648201526000805160206128e6833981519152608482015290519081900360a40190fd5b6000805473ffffffffffffffffffffffffffffffffffffffff1916600160a060020a0392909216919091179055565b3360009081526001602081905260409091205460ff1615151461144e576040805160e560020a62461bcd0281526020600482015260496024820152600080516020612906833981519152604482015260008051602061292683398151915260648201526000805160206128e6833981519152608482015290519081900360a40190fd5b60009182526006602052604090912060020155565b60009081526006602052604090206004015460ff1690565b3360009081526001602081905260409091205460ff161515146114fe576040805160e560020a62461bcd0281526020600482015260496024820152600080516020612906833981519152604482015260008051602061292683398151915260648201526000805160206128e6833981519152608482015290519081900360a40190fd5b600160a060020a03919091166000908152600260205260409020805460ff1916911515919091179055565b3360009081526001602081905260409091205460ff161515146115ac576040805160e560020a62461bcd0281526020600482015260496024820152600080516020612906833981519152604482015260008051602061292683398151915260648201526000805160206128e6833981519152608482015290519081900360a40190fd5b600160a060020a03909116600090815260086020526040902055565b60008181526007602090815260409182902060010180548351818402810184019094528084526060939283018282801561162257602002820191906000526020600020905b8154815260019091019060200180831161160d575b50505050509050919050565b3360009081526001602081905260409091205460ff161515146116b1576040805160e560020a62461bcd0281526020600482015260496024820152600080516020612906833981519152604482015260008051602061292683398151915260648201526000805160206128e6833981519152608482015290519081900360a40190fd5b600160a060020a03919091166000908152600860205260409020600601805460ff1916911515919091179055565b3360009081526001602081905260409091205460ff16151514611762576040805160e560020a62461bcd0281526020600482015260496024820152600080516020612906833981519152604482015260008051602061292683398151915260648201526000805160206128e6833981519152608482015290519081900360a40190fd5b6000928352600660209081526040808520938552600a90930190529120805473ffffffffffffffffffffffffffffffffffffffff1916600160a060020a03909216919091179055565b60009182526006602090815260408084209284526008909201905290205490565b3360009081526001602081905260409091205460ff1615151461184f576040805160e560020a62461bcd0281526020600482015260496024820152600080516020612906833981519152604482015260008051602061292683398151915260648201526000805160206128e6833981519152608482015290519081900360a40190fd5b6000918252600660205260409091206004018054600160a060020a039092166101000274ffffffffffffffffffffffffffffffffffffffff0019909216919091179055565b60009081526006602052604090205490565b3360009081526001602081905260409091205460ff16151514611929576040805160e560020a62461bcd0281526020600482015260496024820152600080516020612906833981519152604482015260008051602061292683398151915260648201526000805160206128e6833981519152608482015290519081900360a40190fd5b600160a060020a03909116600090815260086020526040902060020155565b3360009081526001602081905260409091205460ff161515146119cb576040805160e560020a62461bcd0281526020600482015260496024820152600080516020612906833981519152604482015260008051602061292683398151915260648201526000805160206128e6833981519152608482015290519081900360a40190fd5b600160a060020a03919091166000908152600160205260409020805460ff1916911515919091179055565b600091825260066020818152604080852093855292909101905290205460ff1690565b3360009081526001602081905260409091205460ff16151514611a9c576040805160e560020a62461bcd0281526020600482015260496024820152600080516020612906833981519152604482015260008051602061292683398151915260648201526000805160206128e6833981519152608482015290519081900360a40190fd5b600083815260066020908152604080832085845260050190915290208190600261127d565b3360009081526001602081905260409091205460ff16151514611b44576040805160e560020a62461bcd0281526020600482015260496024820152600080516020612906833981519152604482015260008051602061292683398151915260648201526000805160206128e6833981519152608482015290519081900360a40190fd5b60009182526006602052604090912060030155565b3360009081526001602081905260409091205460ff16151514611bdc576040805160e560020a62461bcd0281526020600482015260496024820152600080516020612906833981519152604482015260008051602061292683398151915260648201526000805160206128e6833981519152608482015290519081900360a40190fd5b600091825260036020526040909120805473ffffffffffffffffffffffffffffffffffffffff1916600160a060020a03909216919091179055565b60009182526006602090815260408084209284526007909201905290205490565b600160a060020a031660009081526008602052604090205490565b3360009081526001602081905260409091205460ff16151514611cd6576040805160e560020a62461bcd0281526020600482015260496024820152600080516020612906833981519152604482015260008051602061292683398151915260648201526000805160206128e6833981519152608482015290519081900360a40190fd5b600160a060020a03909116600090815260086020526040902060010155565b600054600160a060020a031681565b3360009081526001602081905260409091205460ff16151514611d87576040805160e560020a62461bcd0281526020600482015260496024820152600080516020612906833981519152604482015260008051602061292683398151915260648201526000805160206128e6833981519152608482015290519081900360a40190fd5b6000848152600660209081526040808320868452600b019091529020610e5a908383612831565b3360009081526001602081905260409091205460ff16151514611e31576040805160e560020a62461bcd0281526020600482015260496024820152600080516020612906833981519152604482015260008051602061292683398151915260648201526000805160206128e6833981519152608482015290519081900360a40190fd5b60009182526007602052604090912060030155565b3360009081526001602081905260409091205460ff16151514611ec9576040805160e560020a62461bcd0281526020600482015260496024820152600080516020612906833981519152604482015260008051602061292683398151915260648201526000805160206128e6833981519152608482015290519081900360a40190fd5b60008381526006602090815260408083208584526005019091528120829161127d565b600082815260066020908152604080832084845260050190915281206002610f51565b3360009081526001602081905260409091205460ff16151514611f92576040805160e560020a62461bcd0281526020600482015260496024820152600080516020612906833981519152604482015260008051602061292683398151915260648201526000805160206128e6833981519152608482015290519081900360a40190fd5b60009182526006602052604090912055565b3360009081526001602081905260409091205460ff16151514612027576040805160e560020a62461bcd0281526020600482015260496024820152600080516020612906833981519152604482015260008051602061292683398151915260648201526000805160206128e6833981519152608482015290519081900360a40190fd5b6000928352600760209081526040808520938552929052912055565b6000828152600660209081526040808320848452600b0182529182902080548351601f6002610100600185161502600019019093169290920491820184900484028101840190945280845260609392830182828015610ffa5780601f10610fcf57610100808354040283529160200191610ffa565b600091825260076020908152604080842092845291905290205490565b600160a060020a031660009081526002602052604090205460ff1690565b3360009081526001602081905260409091205460ff16151514612176576040805160e560020a62461bcd0281526020600482015260496024820152600080516020612906833981519152604482015260008051602061292683398151915260648201526000805160206128e6833981519152608482015290519081900360a40190fd5b600083815260066020908152604080832085845260050190915290208190600161127d565b3360009081526001602081905260409091205460ff1615151461221e576040805160e560020a62461bcd0281526020600482015260496024820152600080516020612906833981519152604482015260008051602061292683398151915260648201526000805160206128e6833981519152608482015290519081900360a40190fd5b600160a060020a03909116600090815260086020526040902060050155565b6000918252600660209081526040808420928452600a9092019052902054600160a060020a031690565b6000828152600660209081526040808320848452600501909152812081610f51565b3360009081526001602081905260409091205460ff1615151461230c576040805160e560020a62461bcd0281526020600482015260496024820152600080516020612906833981519152604482015260008051602061292683398151915260648201526000805160206128e6833981519152608482015290519081900360a40190fd5b600160a060020a03909116600090815260086020526040902060040155565b3360009081526001602081905260409091205460ff161515146123ae576040805160e560020a62461bcd0281526020600482015260496024820152600080516020612906833981519152604482015260008051602061292683398151915260648201526000805160206128e6833981519152608482015290519081900360a40190fd5b60009283526006602081815260408086209486529390910190529120805460ff1916911515919091179055565b600054600160a060020a03165b90565b3360009081526001602081905260409091205460ff1615151461246e576040805160e560020a62461bcd0281526020600482015260496024820152600080516020612906833981519152604482015260008051602061292683398151915260648201526000805160206128e6833981519152608482015290519081900360a40190fd5b600091825260046020526040909120805473ffffffffffffffffffffffffffffffffffffffff1916600160a060020a03909216919091179055565b3360009081526001602081905260409091205460ff1615151461252c576040805160e560020a62461bcd0281526020600482015260496024820152600080516020612906833981519152604482015260008051602061292683398151915260648201526000805160206128e6833981519152608482015290519081900360a40190fd5b60008281526006602090815260408083208484526005019091528120612551916128af565b5050565b3360009081526001602081905260409091205460ff161515146125d8576040805160e560020a62461bcd0281526020600482015260496024820152600080516020612906833981519152604482015260008051602061292683398151915260648201526000805160206128e6833981519152608482015290519081900360a40190fd5b6000918252600760209081526040808420928452600290920190529020805460ff19166001179055565b600090815260036020526040902054600160a060020a031690565b600160a060020a031660009081526008602052604090206002015490565b3360009081526001602081905260409091205460ff161515146126be576040805160e560020a62461bcd0281526020600482015260496024820152600080516020612906833981519152604482015260008051602061292683398151915260648201526000805160206128e6833981519152608482015290519081900360a40190fd5b60009182526005602052604090912055565b3360009081526001602081905260409091205460ff16151514612753576040805160e560020a62461bcd0281526020600482015260496024820152600080516020612906833981519152604482015260008051602061292683398151915260648201526000805160206128e6833981519152608482015290519081900360a40190fd5b6000908152600660205260409020600401805460ff19166001179055565b3360009081526001602081905260409091205460ff161515146127f4576040805160e560020a62461bcd0281526020600482015260496024820152600080516020612906833981519152604482015260008051602061292683398151915260648201526000805160206128e6833981519152608482015290519081900360a40190fd5b600160a060020a03909116600090815260086020526040902060030155565b600160a060020a031660009081526008602052604090206003015490565b828054600181600116156101000203166002900490600052602060002090601f016020900481019282601f106128725782800160ff1982351617855561289f565b8280016001018555821561289f579182015b8281111561289f578235825591602001919060010190612884565b506128ab9291506128cb565b5090565b5060008155600101600081556001016000815560010160009055565b6123e891905b808211156128ab57600081556001016128d1560063616c6c207468697300000000000000000000000000000000000000000000002353746f72616765206f6e6c7953746f726167655772617070657273204d6f6469666965723a204f6e6c792053746f7261676557726170706572732063616e20a165627a7a72305820b59c3f8b498fda45a20dd2efd4f43d27b53c64b8e5bf8fe490eaca3eecb35ce90029",
  "source": "pragma solidity 0.4.25;\n\n\n/// @notice  Implementation of Eternal Storage Pattern\n///\n/// Author:  Devan Purhar\n/// Version: 1.0.0\n\ncontract Storage {\n\n\n  /*************** STORAGE VARIABLE DECLARATIONS **************/\n\n\n  address public governanceWalletAddress; // eventually will be a smart contract address, not an EOA\n\n  mapping(address => bool) internal storageWrappers; // verified addresses to mutate Storage\n  mapping(address => bool) internal oracles; // verified off-chain addresses to call the Oracle contract\n  mapping(bytes32 => address) internal verifier; // verified contract for portfolio impls. todo --> refactor verifier into contracts unless there's a reason\n  mapping(bytes32 => address) internal contracts; // verified contracts of the system\n  mapping(bytes32 => bytes32) internal tokenKeys;\n  mapping(bytes32 => CommonState) internal _commonStorage;\n  mapping(bytes32 => PortfolioState) internal _portfolioStorage;\n  mapping(address => CoinState) internal _coinStorage;\n\n\n  /// @notice  Common state across RAY's and OSC's\n  struct CommonState {\n\n    uint withdrawnYield; // yield we've \"burnt\" by actually paying out capital while the yield is still out-of-contract -> all completely conceptual\n    uint realizedYield; // yield the system has historically made\n    uint totalShareSupply;\n    uint principal; // only used by Opportunities, only one principal balance to track per Opportunity pool\n    bool pausedMode;\n    address principalAddress;\n\n    mapping(bytes32 => uint[4]) tokenValues;\n\n    // include these for flexibility in the future\n    mapping(bytes32 => bool) _bool;\n    mapping(bytes32 => int) _int;\n    mapping(bytes32 => uint) _uint;\n    mapping(bytes32 => string) _string;\n    mapping(bytes32 => address) _address;\n    mapping(bytes32 => bytes) _bytes;\n\n  }\n\n\n  /// @notice Variables only Portfolios have (OSC's don't have)\n  struct PortfolioState {\n\n    mapping(bytes32 => bytes32) opportunityTokens;\n    bytes32[] opportunities;\n    mapping(bytes32 => bool) validOpportunities;\n    uint availableCapital;\n\n  }\n\n\n  /// @notice  State that needs to be filled out for a coin to be added to the\n  ///          system.\n  ///\n  /// TODO:    Remove minAmount. We should go back to only enforcing the technical\n  ///          minimal amount on-chain and leave any harder restrictions to GUI-side.\n  ///          It's not in favor of an 'open' system to have minimum limits of 1 ETH.\n  struct CoinState {\n\n    uint benchmarkRate;\n    uint cumulativeRate;\n    uint lastUpdatedRate; // in seconds\n    uint acpContribution;\n    uint minAmount;\n    uint raised;\n    bool isERC20;\n\n  }\n\n\n  /*************** MODIFIER DECLARATIONS **************/\n\n\n  /// @notice  Checks the caller is a valid Storage Wrapper\n  ///\n  /// @dev     Only Storage Wrappers can mutate Storage's storage\n  modifier onlyStorageWrappers()\n  {\n      require(\n          storageWrappers[msg.sender] == true,\n         \"#Storage onlyStorageWrappers Modifier: Only StorageWrappers can call this\"\n      );\n\n      _;\n  }\n\n\n  /////////////////////// FUNCTION DECLARATIONS BEGIN ///////////////////////\n\n  /******************* PUBLIC FUNCTIONS *******************/\n\n\n  /// @notice  Sets the Admin contract to our wallet originally until we deploy\n  ///          the Admin contract (next step in deployment). Also sets our wallet\n  ///          wallet address as a storage wrapper, should later unset it to avoid\n  ///          looking shady.\n  ///\n  /// @param   _governanceWalletAddress - governance's wallet address\n  /// @param   _weth - Canonical WETH9 contract address\n  /// @param   _dai - DAI token contract address\n  constructor(\n    address _governanceWalletAddress,\n    address _weth,\n    address _dai\n  )\n    public\n  {\n\n    governanceWalletAddress = _governanceWalletAddress;\n\n    contracts[keccak256(\"WETHTokenContract\")] = _weth;\n    contracts[keccak256(\"DAITokenContract\")] = _dai;\n    contracts[keccak256(\"AdminContract\")] = msg.sender; // need to deploy Admin and then forgo this\n\n    storageWrappers[msg.sender] = true; // need to deploy and set Storage Wrappers then forgo this\n\n  }\n\n\n  /** ----------------- GLOBAL VIEW ACCESSORS ----------------- **/\n\n\n  function getGovernanceWallet() external view returns (address) {\n\n    return governanceWalletAddress;\n\n  }\n\n\n  function getIsOracle(address target) external view returns (bool) {\n\n    return oracles[target];\n\n  }\n\n\n  /// @notice  Gets a contract address by a hash, our current pattern has it starting\n  ///          with 'get'.\n  ///\n  ///          Ex. keccak256(\"OpportunityManagerContract\"); though nothing is wrong with\n  ///          just getContractAddress(keccak256(\"OpportunityManagerContract\")) so maybe\n  ///          the 'get' will be refactored out\n  function getContractAddress(bytes32 contractName) external view returns (address) {\n\n    return contracts[contractName];\n\n  }\n\n\n  /// @notice  Maps portfolio's to the contract that they currently are used\n  ///          through.\n  ///\n  /// @dev     Can't remember added value over using getContractAddress()\n  ///\n  /// TODO:    Think of why, else refactor out\n  function getVerifier(bytes32 contractName) external view returns (address) {\n\n    return verifier[contractName];\n\n  }\n\n\n  /// @notice  Each token is mapped to a key that unlocks everything for it\n  ///          in storage.\n  function getTokenKey(bytes32 tokenId) external view returns (bytes32) {\n\n    return tokenKeys[tokenId];\n\n  }\n\n\n  /** ----------------- STATE SPECIFIC-TYPE VIEW ACCESSOR ----------------- **/\n\n\n  /// @notice  Get the Opportunities this portfolio is allowed to be in\n  function getOpportunities(bytes32 ray) external view returns (bytes32[]) {\n\n    return _portfolioStorage[ray].opportunities;\n\n  }\n\n\n  /// @notice  Get's the coin type of the entered RAY\n  ///\n  /// TODO:    Refactor to getPrincipalToken since we commonly use that\n  function getPrincipalAddress(bytes32 ray) external view returns (address) {\n\n    return _commonStorage[ray].principalAddress;\n\n  }\n\n\n  function getIsERC20(address principalAddress) external view returns (bool) {\n\n    return _coinStorage[principalAddress].isERC20;\n\n  }\n\n\n  /// TODO: Remove this (and refactor the check used in PositionManager associated)\n  function getMinAmount(address principalAddress) external view returns (uint) {\n\n    return _coinStorage[principalAddress].minAmount;\n\n  }\n\n\n  function getRaised(address principalAddress) external view returns (uint) {\n\n    return _coinStorage[principalAddress].raised;\n\n  }\n\n\n  /// @notice  Gets the current baseline benchmark rate of this coin\n  function getBenchmarkRate(address principalAddress) external view returns (uint) {\n\n    return _coinStorage[principalAddress].benchmarkRate;\n\n  }\n\n\n  /// @notice  Gets the cumulative rate of the portfolio entered\n  ///\n  /// @dev     The cumulative rate tracks how the benchmark rate has\n  ///          progressed over time. Used in our fee model to find\n  ///          what benchmark rate is appropriate to a unique token\n  ///          based on when they joined and the changes the rate\n  ///          went through in that time period before they withdraw.\n  function getCumulativeRate(address principalAddress) external view returns (uint) {\n    return _coinStorage[principalAddress].cumulativeRate;\n  }\n\n\n  /// @notice  Gets the last time in seconds the cumulative rate was\n  ///          was updated.\n  function getLastUpdatedRate(address principalAddress) external view returns (uint) {\n    return _coinStorage[principalAddress].lastUpdatedRate;\n  }\n\n\n  /// @notice  Gets the ACP Contribution by coin-type\n  function getACPContribution(address principalAddress) external view returns (uint) {\n\n    return _coinStorage[principalAddress].acpContribution;\n\n  }\n\n\n  /// @notice  Checks if the opportunity exists for this RAY (aka portfolio)\n  function isValidOpportunity(bytes32 ray, bytes32 opportunityKey) external view returns (bool) {\n\n   return _portfolioStorage[ray].validOpportunities[opportunityKey];\n\n }\n\n\n  function getTokenShares(bytes32 ray, bytes32 tokenId) external view returns (uint) {\n    return _commonStorage[ray].tokenValues[tokenId][0];\n  }\n\n\n  function getTokenCapital(bytes32 ray, bytes32 tokenId) external view returns (uint) {\n    return _commonStorage[ray].tokenValues[tokenId][1];\n  }\n\n\n  /// @notice  Gets the entered RAY Tokens allowance\n  ///\n  /// @dev     Each token has an allowance which reflects how much yield they're\n  ///          able to make without being charged a fee by us.\n  function getTokenAllowance(bytes32 ray, bytes32 tokenId) external view returns (uint) {\n    return _commonStorage[ray].tokenValues[tokenId][2];\n  }\n\n\n  /// @notice  Gets the value of the cumulative rate the token 'entered' at.\n  ///\n  /// @dev     I say 'entered' because when a token adds capital or partially withdraws\n  ///          or anytime it changes it's token capital we reset this. Originally\n  ///          called it entryRate since we first set it when the token is created.\n  ///\n  /// TODO:    Based on the above @dev we should refactor this to a more appropriate\n  ///          name\n  function getEntryRate(bytes32 ray, bytes32 tokenId) external view returns (uint) {\n    return _commonStorage[ray].tokenValues[tokenId][3];\n  }\n\n\n  /// @notice  Gets the Opportunity Token of a RAY. We assume a RAY will only need\n  ///          one of a certain Opportunity Token. It shouldn't ever need multiple\n  ///          of the same kind.\n  function getOpportunityToken(bytes32 ray, bytes32 opportunity) external view returns (bytes32) {\n    return _portfolioStorage[ray].opportunityTokens[opportunity];\n  }\n\n\n  function getPrincipal(bytes32 opportunityKey) external view returns (uint) {\n    return _commonStorage[opportunityKey].principal;\n  }\n\n\n  function getPausedMode(bytes32 ray) external view returns (bool) {\n    return _commonStorage[ray].pausedMode;\n  }\n\n\n  /// @notice  Gets the historical yield of the portfolio entered\n  ///\n  /// @dev     Historical yield is the yield we've made, but withdrew\n  ///          back into the system and now use it as capital\n  function getRealizedYield(bytes32 ray) external view returns (uint) {\n    return _commonStorage[ray].realizedYield;\n  }\n\n\n  /// @notice  Gets the burnt yield of the portfolio entered\n  ///\n  /// @dev     Burnt yield is a strange concept forcibly created by\n  ///          the way we conceptually withdraw value from platforms.\n  ///          We should refactor that behaviour and then get\n  ///          rid of this variable. Need to actualy think it all\n  ///          through first since other things might be tied to\n  ///          that system as well.\n  function getWithdrawnYield(bytes32 ray) external view returns (uint) {\n    return _commonStorage[ray].withdrawnYield;\n  }\n\n\n  /// @notice  Gets the available capital of a portfolio.\n  ///\n  /// @dev     Available capital is the amount of funds available to a portfolio\n  ///          to lend out. This is based on users depositing funds into it.\n  function getAvailableCapital(bytes32 ray) external view returns (uint) {\n    return _portfolioStorage[ray].availableCapital;\n  }\n\n\n  function getShareSupply(bytes32 ray) external view returns (uint) {\n    return _commonStorage[ray].totalShareSupply;\n  }\n\n\n  /** ----------------- GENERIC TYPE VIEW ACCESSOR ----------------- **/\n\n\n  function getBoolean(bytes32 ray, bytes32 key) external view returns (bool) {\n    return _commonStorage[ray]._bool[key];\n  }\n\n\n  function getInt(bytes32 ray, bytes32 key) external view returns (int) {\n    return _commonStorage[ray]._int[key];\n  }\n\n\n function getUint(bytes32 ray, bytes32 key) external view returns (uint) {\n   return _commonStorage[ray]._uint[key];\n  }\n\n\n function getAddress(bytes32 ray, bytes32 key) external view returns (address) {\n   return _commonStorage[ray]._address[key];\n }\n\n\n function getString(bytes32 ray, bytes32 key) external view returns (string) {\n   return _commonStorage[ray]._string[key];\n }\n\n\n function getBytes(bytes32 ray, bytes32 key) external view returns (bytes) {\n   return _commonStorage[ray]._bytes[key];\n }\n\n\n /** ----------------- ONLY STORAGE WRAPPERS GLOBAL MUTATORS ----------------- **/\n\n\n  /// @notice  This sets the Governance Wallet - important since this wallet controls\n  ///          the Admin contract that controls 'Governance' in the system.\n  function setGovernanceWallet(address newGovernanceWallet) external onlyStorageWrappers {\n\n    governanceWalletAddress = newGovernanceWallet;\n\n  }\n\n\n  /// @dev Adds or remove an Oracle\n  ///\n  /// @param oracle - the address of the wallet targeted\n  /// @param action - the action we wish to carry out, true to add, false to remove\n  function setOracle(address oracle, bool action) external onlyStorageWrappers {\n\n    oracles[oracle] = action;\n\n  }\n\n\n  /// @notice  Adds or removes a StorageWrapper\n  ///\n  /// @param  theStorageWrapper - the address to either add or remove\n  /// @param  action - the action we wish to carry out, true to add, false to remove\n  function setStorageWrapperContract(\n    address theStorageWrapper,\n    bool action\n   )\n    external\n    onlyStorageWrappers\n  {\n\n    storageWrappers[theStorageWrapper] = action;\n\n  }\n\n\n  function setVerifier(bytes32 ray, address contractAddress) external onlyStorageWrappers {\n\n    verifier[ray] = contractAddress;\n\n  }\n\n\n  /// @notice  Sets the contract address mapped to a contracts name\n  ///\n  /// @param  contractName - The name of the contract prepended with 'get' currently\n  /// @param  contractAddress - The address of the contract\n  function setContractAddress(\n    bytes32 contractName,\n    address contractAddress\n  )\n    external\n    onlyStorageWrappers\n  {\n\n    contracts[contractName] = contractAddress;\n\n  }\n\n\n  function setTokenKey(bytes32 tokenId, bytes32 ray) external onlyStorageWrappers {\n\n    tokenKeys[tokenId] = ray;\n\n  }\n\n\n  function setIsERC20(address principalAddress, bool _isERC20) external onlyStorageWrappers {\n\n    _coinStorage[principalAddress].isERC20 = _isERC20;\n\n  }\n\n\n  function setMinAmount(address principalAddress, uint _minAmount) external onlyStorageWrappers {\n\n    _coinStorage[principalAddress].minAmount = _minAmount;\n\n  }\n\n\n  function setRaised(address principalAddress, uint _raised) external onlyStorageWrappers {\n\n    _coinStorage[principalAddress].raised = _raised;\n\n  }\n\n\n  function setBenchmarkRate(address principalAddress, uint newBenchmarkRate) external onlyStorageWrappers {\n\n    _coinStorage[principalAddress].benchmarkRate = newBenchmarkRate;\n\n  }\n\n\n  function setCumulativeRate(address principalAddress, uint newCumulativeRate) external onlyStorageWrappers {\n    _coinStorage[principalAddress].cumulativeRate = newCumulativeRate;\n  }\n\n\n  function setLastUpdatedRate(address principalAddress, uint newLastUpdatedRate) external onlyStorageWrappers {\n    _coinStorage[principalAddress].lastUpdatedRate = newLastUpdatedRate;\n  }\n\n\n  function setACPContribution(address principalAddress, uint newACPContribution) external onlyStorageWrappers {\n\n    _coinStorage[principalAddress].acpContribution = newACPContribution;\n\n  }\n\n\n  /** ----------------- ONLY STORAGE WRAPPERS STATE SPECIFIC MUTATORS ----------------- **/\n\n\n  function deleteTokenValues(bytes32 ray, bytes32 tokenId) external onlyStorageWrappers {\n\n    delete _commonStorage[ray].tokenValues[tokenId];\n\n  }\n\n\n  /// @notice  Add an Opportunity to a portfolio's available options. We also set\n  ///          the principal address used by the portfolio at the same time.\n  ///\n  /// @param   ray - The portfolio we're configuring\n  /// @param   opportunityKey - The key of the opportunity we're adding to this portfolio\n  /// @param   _principalAddress - The coin's contract address for this portfolio\n  //\n  /// TODO:    This is in-efficient, we set the principal address multiple times\n  ///          for the same portfolio. Fix this.\n  ///\n  /// TODO:     Should I refactor principalToken -> principalAddress or opposite?\n  function addOpportunity(\n    bytes32 ray,\n    bytes32 opportunityKey,\n    address _principalAddress\n  )\n    external\n    onlyStorageWrappers\n  {\n\n    _portfolioStorage[ray].opportunities.push(opportunityKey); // no push() on static arrays\n    _commonStorage[ray].principalAddress = _principalAddress;\n\n  }\n\n\n  function setPrincipalAddress(\n    bytes32 ray,\n    address _principalAddress\n  )\n    external\n    onlyStorageWrappers\n  {\n\n    _commonStorage[ray].principalAddress = _principalAddress;\n\n  }\n\n\n  /// @notice   Set an opportunity as valid in a mapping to a portfolio key\n  ///\n  /// @dev      We set the valid opportunities in an array, but we also set them\n  ///           here for quicker access instead of having to iterate through the array\n  ///           Sacrifice the extra gas cost (20,000) per opportunity we 'double set'\n  function setValidOpportunity(bytes32 ray, bytes32 opportunityKey) external onlyStorageWrappers {\n\n   _portfolioStorage[ray].validOpportunities[opportunityKey] = true;\n\n }\n\n\n  function setTokenShares(\n    bytes32 ray,\n    bytes32 tokenId,\n    uint tokenShares\n  )\n    external\n    onlyStorageWrappers\n  {\n    _commonStorage[ray].tokenValues[tokenId][0] = tokenShares;\n  }\n\n\n  function setTokenCapital(\n    bytes32 ray,\n    bytes32 tokenId,\n    uint tokenCapital\n  )\n    external\n    onlyStorageWrappers\n  {\n    _commonStorage[ray].tokenValues[tokenId][1] = tokenCapital;\n  }\n\n\n  function setTokenAllowance(\n    bytes32 ray,\n    bytes32 tokenId,\n    uint tokenAllowance\n  )\n    external\n    onlyStorageWrappers\n  {\n    _commonStorage[ray].tokenValues[tokenId][2] = tokenAllowance;\n  }\n\n\n  function setEntryRate(\n    bytes32 ray,\n    bytes32 tokenId,\n    uint entryRate\n  )\n    external\n    onlyStorageWrappers\n  {\n    _commonStorage[ray].tokenValues[tokenId][3] = entryRate;\n  }\n\n\n  function setOpportunityToken(\n    bytes32 ray,\n    bytes32 opportunity,\n    bytes32 tokenId\n  )\n    external\n    onlyStorageWrappers\n  {\n    _portfolioStorage[ray].opportunityTokens[opportunity] = tokenId;\n  }\n\n\n  // only used to track Opportunity's loan amounts, by Opportunity Type\n  // Portfolio's use the opportunity token's capital as their tracker\n  function setPrincipal(\n    bytes32 opportunityKey,\n    uint principalAmount\n  )\n    external\n    onlyStorageWrappers\n  {\n    _commonStorage[opportunityKey].principal = principalAmount;\n  }\n\n\n  function setPausedOn(bytes32 ray) external onlyStorageWrappers {\n    _commonStorage[ray].pausedMode = true;\n  }\n\n\n  function setPausedOff(bytes32 ray) external onlyStorageWrappers {\n    _commonStorage[ray].pausedMode = false;\n  }\n\n\n  function setRealizedYield(bytes32 ray, uint newRealizedYield) external onlyStorageWrappers {\n    _commonStorage[ray].realizedYield = newRealizedYield;\n  }\n\n\n  function setWithdrawnYield(bytes32 ray, uint newWithdrawnYield) external onlyStorageWrappers {\n    _commonStorage[ray].withdrawnYield = newWithdrawnYield;\n  }\n\n\n  function setAvailableCapital(bytes32 ray, uint newAvailableCapital) external onlyStorageWrappers {\n    _portfolioStorage[ray].availableCapital = newAvailableCapital;\n  }\n\n\n  function setShareSupply(bytes32 ray, uint newShareSupply) external onlyStorageWrappers {\n    _commonStorage[ray].totalShareSupply = newShareSupply;\n  }\n\n\n  /** ----------------- ONLY STORAGE WRAPPERS GENERIC MUTATORS ----------------- **/\n\n  /// @notice  We have these to enable us to be flexible with our eternal storage\n  ///          in the future. Also, we could always deploy a new Storage contract\n  ///          and reference two Storage contracts in the system and so on.\n\n\n  function setBoolean(bytes32 ray, bytes32 key, bool value) external onlyStorageWrappers {\n    _commonStorage[ray]._bool[key] = value;\n  }\n\n\n  function setInt(bytes32 ray, bytes32 key, int value) external onlyStorageWrappers {\n    _commonStorage[ray]._int[key] = value;\n  }\n\n\n function setUint(bytes32 ray, bytes32 key, uint256 value) external onlyStorageWrappers {\n   _commonStorage[ray]._uint[key] = value;\n  }\n\n\n function setAddress(bytes32 ray, bytes32 key, address value) external onlyStorageWrappers {\n   _commonStorage[ray]._address[key] = value;\n }\n\n\n function setString(bytes32 ray, bytes32 key, string value) external onlyStorageWrappers {\n   _commonStorage[ray]._string[key] = value;\n }\n\n\n function setBytes(bytes32 ray, bytes32 key, bytes value) external onlyStorageWrappers {\n   _commonStorage[ray]._bytes[key] = value;\n }\n\n\n}\n",
  "sourcePath": "/source/contracts/protocol/impl/Storage.sol",
  "compiler": {
    "name": "solc",
    "version": "0.4.25+commit.59dbf8f1.Emscripten.clang"
  },
  "schemaVersion": "3.0.1",
  "updatedAt": "2019-09-09T20:04:08.280Z",
  "devdoc": {
    "methods": {
      "getAvailableCapital(bytes32)": {
        "details": "Available capital is the amount of funds available to a portfolio          to lend out. This is based on users depositing funds into it."
      },
      "getCumulativeRate(address)": {
        "details": "The cumulative rate tracks how the benchmark rate has          progressed over time. Used in our fee model to find          what benchmark rate is appropriate to a unique token          based on when they joined and the changes the rate          went through in that time period before they withdraw."
      },
      "getEntryRate(bytes32,bytes32)": {
        "details": "I say 'entered' because when a token adds capital or partially withdraws          or anytime it changes it's token capital we reset this. Originally          called it entryRate since we first set it when the token is created. we should refactor this to a more appropriate          name"
      },
      "getRealizedYield(bytes32)": {
        "details": "Historical yield is the yield we've made, but withdrew          back into the system and now use it as capital"
      },
      "getTokenAllowance(bytes32,bytes32)": {
        "details": "Each token has an allowance which reflects how much yield they're          able to make without being charged a fee by us."
      },
      "getVerifier(bytes32)": {
        "details": "Can't remember added value over using getContractAddress()   /// TODO:    Think of why, else refactor out"
      },
      "getWithdrawnYield(bytes32)": {
        "details": "Burnt yield is a strange concept forcibly created by          the way we conceptually withdraw value from platforms.          We should refactor that behaviour and then get          rid of this variable. Need to actualy think it all          through first since other things might be tied to          that system as well."
      },
      "setContractAddress(bytes32,address)": {
        "params": {
          "contractAddress": "- The address of the contract",
          "contractName": "- The name of the contract prepended with 'get' currently"
        }
      },
      "setOracle(address,bool)": {
        "details": "Adds or remove an Oracle ",
        "params": {
          "action": "- the action we wish to carry out, true to add, false to remove",
          "oracle": "- the address of the wallet targeted"
        }
      },
      "setStorageWrapperContract(address,bool)": {
        "params": {
          "action": "- the action we wish to carry out, true to add, false to remove",
          "theStorageWrapper": "- the address to either add or remove"
        }
      },
      "setValidOpportunity(bytes32,bytes32)": {
        "details": "We set the valid opportunities in an array, but we also set them           here for quicker access instead of having to iterate through the array           Sacrifice the extra gas cost (20,000) per opportunity we 'double set'"
      }
    }
  },
  "userdoc": {
    "methods": {
      "addOpportunity(bytes32,bytes32,address)": {
        "notice": "TODO:    This is in-efficient, we set the principal address multiple times          for the same portfolio. Fix this.   /// TODO:     Should I refactor principalToken -> principalAddress or opposite?"
      },
      "deleteTokenValues(bytes32,bytes32)": {
        "notice": "----------------- ONLY STORAGE WRAPPERS STATE SPECIFIC MUTATORS ----------------- *"
      },
      "getACPContribution(address)": {
        "notice": "Gets the ACP Contribution by coin-type"
      },
      "getAvailableCapital(bytes32)": {
        "notice": "Gets the available capital of a portfolio. "
      },
      "getBenchmarkRate(address)": {
        "notice": "Gets the current baseline benchmark rate of this coin"
      },
      "getBoolean(bytes32,bytes32)": {
        "notice": "----------------- GENERIC TYPE VIEW ACCESSOR ----------------- *"
      },
      "getContractAddress(bytes32)": {
        "notice": "Gets a contract address by a hash, our current pattern has it starting          with 'get'.   ///          Ex. keccak256(\"OpportunityManagerContract\"); though nothing is wrong with          just getContractAddress(keccak256(\"OpportunityManagerContract\")) so maybe          the 'get' will be refactored out"
      },
      "getCumulativeRate(address)": {
        "notice": "Gets the cumulative rate of the portfolio entered "
      },
      "getEntryRate(bytes32,bytes32)": {
        "notice": "Gets the value of the cumulative rate the token 'entered' at. "
      },
      "getGovernanceWallet()": {
        "notice": "----------------- GLOBAL VIEW ACCESSORS ----------------- *"
      },
      "getLastUpdatedRate(address)": {
        "notice": "Gets the last time in seconds the cumulative rate was          was updated."
      },
      "getMinAmount(address)": {
        "notice": "TODO: Remove this (and refactor the check used in PositionManager associated)"
      },
      "getOpportunities(bytes32)": {
        "notice": "Get the Opportunities this portfolio is allowed to be in"
      },
      "getOpportunityToken(bytes32,bytes32)": {
        "notice": "Gets the Opportunity Token of a RAY. We assume a RAY will only need          one of a certain Opportunity Token. It shouldn't ever need multiple          of the same kind."
      },
      "getPrincipalAddress(bytes32)": {
        "notice": "Get's the coin type of the entered RAY   /// TODO:    Refactor to getPrincipalToken since we commonly use that"
      },
      "getRealizedYield(bytes32)": {
        "notice": "Gets the historical yield of the portfolio entered "
      },
      "getTokenAllowance(bytes32,bytes32)": {
        "notice": "Gets the entered RAY Tokens allowance "
      },
      "getTokenKey(bytes32)": {
        "notice": "Each token is mapped to a key that unlocks everything for it          in storage."
      },
      "getVerifier(bytes32)": {
        "notice": "Maps portfolio's to the contract that they currently are used          through. "
      },
      "getWithdrawnYield(bytes32)": {
        "notice": "Gets the burnt yield of the portfolio entered "
      },
      "isValidOpportunity(bytes32,bytes32)": {
        "notice": "Checks if the opportunity exists for this RAY (aka portfolio)"
      },
      "setBoolean(bytes32,bytes32,bool)": {
        "notice": "We have these to enable us to be flexible with our eternal storage          in the future. Also, we could always deploy a new Storage contract          and reference two Storage contracts in the system and so on."
      },
      "setContractAddress(bytes32,address)": {
        "notice": "Sets the contract address mapped to a contracts name "
      },
      "setGovernanceWallet(address)": {
        "notice": "This sets the Governance Wallet - important since this wallet controls          the Admin contract that controls 'Governance' in the system."
      },
      "setStorageWrapperContract(address,bool)": {
        "notice": "Adds or removes a StorageWrapper "
      },
      "setValidOpportunity(bytes32,bytes32)": {
        "notice": "Set an opportunity as valid in a mapping to a portfolio key "
      }
    }
  }
}